{
    "_format": "hh-sol-artifact-1",
    "contractName": "PharmaSupplyChain",
    "sourceName": "contracts/SupplyChain.sol",
    "abi": [
        {
            "inputs": [],
            "stateMutability": "nonpayable",
            "type": "constructor"
        },
        {
            "anonymous": false,
            "inputs": [
                {
                    "indexed": true,
                    "internalType": "uint256",
                    "name": "orderId",
                    "type": "uint256"
                },
                {
                    "indexed": true,
                    "internalType": "address",
                    "name": "userId",
                    "type": "address"
                },
                {
                    "indexed": true,
                    "internalType": "address",
                    "name": "pharmacyId",
                    "type": "address"
                },
                {
                    "indexed": false,
                    "internalType": "address",
                    "name": "vendorOrgId",
                    "type": "address"
                },
                {
                    "indexed": false,
                    "internalType": "uint256",
                    "name": "amount",
                    "type": "uint256"
                },
                {
                    "indexed": false,
                    "internalType": "uint256",
                    "name": "timestamp",
                    "type": "uint256"
                }
            ],
            "name": "OrderCreated",
            "type": "event"
        },
        {
            "anonymous": false,
            "inputs": [
                {
                    "indexed": true,
                    "internalType": "uint256",
                    "name": "orderId",
                    "type": "uint256"
                },
                {
                    "indexed": false,
                    "internalType": "enum PharmaSupplyChain.OrderStatus",
                    "name": "oldStatus",
                    "type": "uint8"
                },
                {
                    "indexed": false,
                    "internalType": "enum PharmaSupplyChain.OrderStatus",
                    "name": "newStatus",
                    "type": "uint8"
                },
                {
                    "indexed": false,
                    "internalType": "uint256",
                    "name": "timestamp",
                    "type": "uint256"
                }
            ],
            "name": "OrderStatusUpdated",
            "type": "event"
        },
        {
            "anonymous": false,
            "inputs": [
                {
                    "indexed": true,
                    "internalType": "uint256",
                    "name": "orderId",
                    "type": "uint256"
                },
                {
                    "indexed": false,
                    "internalType": "enum PharmaSupplyChain.PaymentStatus",
                    "name": "oldStatus",
                    "type": "uint8"
                },
                {
                    "indexed": false,
                    "internalType": "enum PharmaSupplyChain.PaymentStatus",
                    "name": "newStatus",
                    "type": "uint8"
                },
                {
                    "indexed": false,
                    "internalType": "uint256",
                    "name": "timestamp",
                    "type": "uint256"
                }
            ],
            "name": "PaymentStatusUpdated",
            "type": "event"
        },
        {
            "anonymous": false,
            "inputs": [
                {
                    "indexed": true,
                    "internalType": "address",
                    "name": "walletAddress",
                    "type": "address"
                },
                {
                    "indexed": false,
                    "internalType": "enum PharmaSupplyChain.Role",
                    "name": "role",
                    "type": "uint8"
                }
            ],
            "name": "UserRegistered",
            "type": "event"
        },
        {
            "inputs": [
                {
                    "internalType": "address",
                    "name": "userId",
                    "type": "address"
                },
                {
                    "internalType": "address",
                    "name": "pharmacyOutletId",
                    "type": "address"
                },
                {
                    "internalType": "address",
                    "name": "vendorOrgId",
                    "type": "address"
                },
                {
                    "internalType": "uint256",
                    "name": "amount",
                    "type": "uint256"
                }
            ],
            "name": "createOrder",
            "outputs": [],
            "stateMutability": "nonpayable",
            "type": "function"
        },
        {
            "inputs": [
                {
                    "internalType": "uint256",
                    "name": "orderId",
                    "type": "uint256"
                }
            ],
            "name": "getOrder",
            "outputs": [
                {
                    "internalType": "uint256",
                    "name": "id",
                    "type": "uint256"
                },
                {
                    "internalType": "address",
                    "name": "userId",
                    "type": "address"
                },
                {
                    "internalType": "address",
                    "name": "pharmacyOutletId",
                    "type": "address"
                },
                {
                    "internalType": "address",
                    "name": "vendorOrgId",
                    "type": "address"
                },
                {
                    "internalType": "uint256",
                    "name": "orderDate",
                    "type": "uint256"
                },
                {
                    "internalType": "enum PharmaSupplyChain.OrderStatus",
                    "name": "orderStatus",
                    "type": "uint8"
                },
                {
                    "internalType": "enum PharmaSupplyChain.PaymentStatus",
                    "name": "paymentStatus",
                    "type": "uint8"
                },
                {
                    "internalType": "uint256",
                    "name": "amount",
                    "type": "uint256"
                }
            ],
            "stateMutability": "view",
            "type": "function"
        },
        {
            "inputs": [],
            "name": "orderCount",
            "outputs": [
                {
                    "internalType": "uint256",
                    "name": "",
                    "type": "uint256"
                }
            ],
            "stateMutability": "view",
            "type": "function"
        },
        {
            "inputs": [
                {
                    "internalType": "uint256",
                    "name": "",
                    "type": "uint256"
                }
            ],
            "name": "orders",
            "outputs": [
                {
                    "internalType": "uint256",
                    "name": "id",
                    "type": "uint256"
                },
                {
                    "internalType": "address",
                    "name": "userId",
                    "type": "address"
                },
                {
                    "internalType": "address",
                    "name": "pharmacyOutletId",
                    "type": "address"
                },
                {
                    "internalType": "address",
                    "name": "vendorOrgId",
                    "type": "address"
                },
                {
                    "internalType": "uint256",
                    "name": "orderDate",
                    "type": "uint256"
                },
                {
                    "internalType": "enum PharmaSupplyChain.OrderStatus",
                    "name": "orderStatus",
                    "type": "uint8"
                },
                {
                    "internalType": "enum PharmaSupplyChain.PaymentStatus",
                    "name": "paymentStatus",
                    "type": "uint8"
                },
                {
                    "internalType": "uint256",
                    "name": "amount",
                    "type": "uint256"
                }
            ],
            "stateMutability": "view",
            "type": "function"
        },
        {
            "inputs": [
                {
                    "internalType": "address",
                    "name": "walletAddress",
                    "type": "address"
                },
                {
                    "internalType": "enum PharmaSupplyChain.Role",
                    "name": "role",
                    "type": "uint8"
                }
            ],
            "name": "registerUser",
            "outputs": [],
            "stateMutability": "nonpayable",
            "type": "function"
        },
        {
            "inputs": [
                {
                    "internalType": "uint256",
                    "name": "orderId",
                    "type": "uint256"
                },
                {
                    "internalType": "enum PharmaSupplyChain.OrderStatus",
                    "name": "newStatus",
                    "type": "uint8"
                }
            ],
            "name": "updateOrderStatus",
            "outputs": [],
            "stateMutability": "nonpayable",
            "type": "function"
        },
        {
            "inputs": [
                {
                    "internalType": "uint256",
                    "name": "orderId",
                    "type": "uint256"
                },
                {
                    "internalType": "enum PharmaSupplyChain.PaymentStatus",
                    "name": "newStatus",
                    "type": "uint8"
                }
            ],
            "name": "updatePaymentStatus",
            "outputs": [],
            "stateMutability": "nonpayable",
            "type": "function"
        },
        {
            "inputs": [
                {
                    "internalType": "address",
                    "name": "",
                    "type": "address"
                }
            ],
            "name": "users",
            "outputs": [
                {
                    "internalType": "address",
                    "name": "walletAddress",
                    "type": "address"
                },
                {
                    "internalType": "enum PharmaSupplyChain.Role",
                    "name": "role",
                    "type": "uint8"
                },
                {
                    "internalType": "bool",
                    "name": "isActive",
                    "type": "bool"
                }
            ],
            "stateMutability": "view",
            "type": "function"
        }
    ],
    "bytecode": "0x608060405234801561001057600080fd5b5060405180606001604052803373ffffffffffffffffffffffffffffffffffffffff1681526020016001600381111561004c5761004b610184565b5b8152602001600115158152506000803373ffffffffffffffffffffffffffffffffffffffff1673ffffffffffffffffffffffffffffffffffffffff16815260200190815260200160002060008201518160000160006101000a81548173ffffffffffffffffffffffffffffffffffffffff021916908373ffffffffffffffffffffffffffffffffffffffff16021790555060208201518160000160146101000a81548160ff0219169083600381111561010857610107610184565b5b021790555060408201518160000160156101000a81548160ff0219169083151502179055509050503373ffffffffffffffffffffffffffffffffffffffff167f8e18574f8a7333e6a87112742a55853a643e2f0550f4e1a3a2c3f1bb2994441d600160405161017791906101fb565b60405180910390a2610216565b7f4e487b7100000000000000000000000000000000000000000000000000000000600052602160045260246000fd5b600481106101c4576101c3610184565b5b50565b60008190506101d5826101b3565b919050565b60006101e5826101c7565b9050919050565b6101f5816101da565b82525050565b600060208201905061021060008301846101ec565b92915050565b611a2b806102256000396000f3fe608060405234801561001057600080fd5b50600436106100885760003560e01c8063a85c38ef1161005b578063a85c38ef146100ff578063a87430ba14610136578063aab3196d14610168578063d09ef2411461018457610088565b80632453ffa81461008d5780634071ace5146100ab57806353253d32146100c75780639e9fa097146100e3575b600080fd5b6100956101bb565b6040516100a291906110a1565b60405180910390f35b6100c560048036038101906100c09190611112565b6101c1565b005b6100e160048036038101906100dc91906111b0565b6102c1565b005b6100fd60048036038101906100f8919061123c565b6107b2565b005b6101196004803603810190610114919061127c565b610aa7565b60405161012d989796959493929190611377565b60405180910390f35b610150600480360381019061014b91906113f5565b610b69565b60405161015f93929190611485565b60405180910390f35b610182600480360381019061017d91906114e1565b610bcd565b005b61019e6004803603810190610199919061127c565b610e26565b6040516101b2989796959493929190611377565b60405180910390f35b60025481565b600060016000848152602001908152602001600020600001540361021a576040517f08c379a00000000000000000000000000000000000000000000000000000000081526004016102119061157e565b60405180910390fd5b60006001600084815260200190815260200160002060050160019054906101000a900460ff169050816001600085815260200190815260200160002060050160016101000a81548160ff0219169083600281111561027b5761027a6112b8565b5b0217905550827f813095a280092b4cd32b787665f6241a164fbffeede437f2b5f0e075868e5dfa8284426040516102b49392919061159e565b60405180910390a2505050565b6003808111156102d4576102d36112b8565b5b6000803373ffffffffffffffffffffffffffffffffffffffff1673ffffffffffffffffffffffffffffffffffffffff16815260200190815260200160002060000160149054906101000a900460ff166003811115610335576103346112b8565b5b14610375576040517f08c379a000000000000000000000000000000000000000000000000000000000815260040161036c90611647565b60405180910390fd5b83600073ffffffffffffffffffffffffffffffffffffffff166000808373ffffffffffffffffffffffffffffffffffffffff1673ffffffffffffffffffffffffffffffffffffffff16815260200190815260200160002060000160009054906101000a900473ffffffffffffffffffffffffffffffffffffffff1673ffffffffffffffffffffffffffffffffffffffff1603610446576040517f08c379a000000000000000000000000000000000000000000000000000000000815260040161043d906116b3565b60405180910390fd5b82600073ffffffffffffffffffffffffffffffffffffffff166000808373ffffffffffffffffffffffffffffffffffffffff1673ffffffffffffffffffffffffffffffffffffffff16815260200190815260200160002060000160009054906101000a900473ffffffffffffffffffffffffffffffffffffffff1673ffffffffffffffffffffffffffffffffffffffff1603610517576040517f08c379a000000000000000000000000000000000000000000000000000000000815260040161050e906116b3565b60405180910390fd5b6002600081548092919061052a90611702565b919050555060405180610100016040528060025481526020018773ffffffffffffffffffffffffffffffffffffffff1681526020018673ffffffffffffffffffffffffffffffffffffffff1681526020018573ffffffffffffffffffffffffffffffffffffffff168152602001428152602001600060038111156105b1576105b06112b8565b5b8152602001600060028111156105ca576105c96112b8565b5b8152602001848152506001600060025481526020019081526020016000206000820151816000015560208201518160010160006101000a81548173ffffffffffffffffffffffffffffffffffffffff021916908373ffffffffffffffffffffffffffffffffffffffff16021790555060408201518160020160006101000a81548173ffffffffffffffffffffffffffffffffffffffff021916908373ffffffffffffffffffffffffffffffffffffffff16021790555060608201518160030160006101000a81548173ffffffffffffffffffffffffffffffffffffffff021916908373ffffffffffffffffffffffffffffffffffffffff1602179055506080820151816004015560a08201518160050160006101000a81548160ff021916908360038111156106fc576106fb6112b8565b5b021790555060c08201518160050160016101000a81548160ff0219169083600281111561072c5761072b6112b8565b5b021790555060e082015181600601559050508473ffffffffffffffffffffffffffffffffffffffff168673ffffffffffffffffffffffffffffffffffffffff166002547fa4be1e061958d160de04db54668a64922c36d2765b16644ae91acf127708970e8787426040516107a29392919061174a565b60405180910390a4505050505050565b600160038111156107c6576107c56112b8565b5b6000803373ffffffffffffffffffffffffffffffffffffffff1673ffffffffffffffffffffffffffffffffffffffff16815260200190815260200160002060000160149054906101000a900460ff166003811115610827576108266112b8565b5b14610867576040517f08c379a000000000000000000000000000000000000000000000000000000000815260040161085e906117f3565b60405180910390fd5b600073ffffffffffffffffffffffffffffffffffffffff166000808473ffffffffffffffffffffffffffffffffffffffff1673ffffffffffffffffffffffffffffffffffffffff16815260200190815260200160002060000160009054906101000a900473ffffffffffffffffffffffffffffffffffffffff1673ffffffffffffffffffffffffffffffffffffffff1614610937576040517f08c379a000000000000000000000000000000000000000000000000000000000815260040161092e9061185f565b60405180910390fd5b60405180606001604052808373ffffffffffffffffffffffffffffffffffffffff168152602001826003811115610971576109706112b8565b5b8152602001600115158152506000808473ffffffffffffffffffffffffffffffffffffffff1673ffffffffffffffffffffffffffffffffffffffff16815260200190815260200160002060008201518160000160006101000a81548173ffffffffffffffffffffffffffffffffffffffff021916908373ffffffffffffffffffffffffffffffffffffffff16021790555060208201518160000160146101000a81548160ff02191690836003811115610a2d57610a2c6112b8565b5b021790555060408201518160000160156101000a81548160ff0219169083151502179055509050508173ffffffffffffffffffffffffffffffffffffffff167f8e18574f8a7333e6a87112742a55853a643e2f0550f4e1a3a2c3f1bb2994441d82604051610a9b919061187f565b60405180910390a25050565b60016020528060005260406000206000915090508060000154908060010160009054906101000a900473ffffffffffffffffffffffffffffffffffffffff16908060020160009054906101000a900473ffffffffffffffffffffffffffffffffffffffff16908060030160009054906101000a900473ffffffffffffffffffffffffffffffffffffffff16908060040154908060050160009054906101000a900460ff16908060050160019054906101000a900460ff16908060060154905088565b60006020528060005260406000206000915090508060000160009054906101000a900473ffffffffffffffffffffffffffffffffffffffff16908060000160149054906101000a900460ff16908060000160159054906101000a900460ff16905083565b60026003811115610be157610be06112b8565b5b6000803373ffffffffffffffffffffffffffffffffffffffff1673ffffffffffffffffffffffffffffffffffffffff16815260200190815260200160002060000160149054906101000a900460ff166003811115610c4257610c416112b8565b5b14610c82576040517f08c379a0000000000000000000000000000000000000000000000000000000008152600401610c799061190c565b60405180910390fd5b6000600160008481526020019081526020016000206000015403610cdb576040517f08c379a0000000000000000000000000000000000000000000000000000000008152600401610cd29061157e565b60405180910390fd5b3373ffffffffffffffffffffffffffffffffffffffff166001600084815260200190815260200160002060030160009054906101000a900473ffffffffffffffffffffffffffffffffffffffff1673ffffffffffffffffffffffffffffffffffffffff1614610d7f576040517f08c379a0000000000000000000000000000000000000000000000000000000008152600401610d769061199e565b60405180910390fd5b60006001600084815260200190815260200160002060050160009054906101000a900460ff169050816001600085815260200190815260200160002060050160006101000a81548160ff02191690836003811115610de057610ddf6112b8565b5b0217905550827f122e18bce4df03b38169876cf33d87445ca61604a39d1790ef4a5cf103ee4af6828442604051610e19939291906119be565b60405180910390a2505050565b6000806000806000806000806000600160008b81526020019081526020016000206000015403610e8b576040517f08c379a0000000000000000000000000000000000000000000000000000000008152600401610e829061157e565b60405180910390fd5b6000600160008b815260200190815260200160002060405180610100016040529081600082015481526020016001820160009054906101000a900473ffffffffffffffffffffffffffffffffffffffff1673ffffffffffffffffffffffffffffffffffffffff1673ffffffffffffffffffffffffffffffffffffffff1681526020016002820160009054906101000a900473ffffffffffffffffffffffffffffffffffffffff1673ffffffffffffffffffffffffffffffffffffffff1673ffffffffffffffffffffffffffffffffffffffff1681526020016003820160009054906101000a900473ffffffffffffffffffffffffffffffffffffffff1673ffffffffffffffffffffffffffffffffffffffff1673ffffffffffffffffffffffffffffffffffffffff168152602001600482015481526020016005820160009054906101000a900460ff166003811115610fe757610fe66112b8565b5b6003811115610ff957610ff86112b8565b5b81526020016005820160019054906101000a900460ff166002811115611022576110216112b8565b5b6002811115611034576110336112b8565b5b81526020016006820154815250509050806000015181602001518260400151836060015184608001518560a001518660c001518760e001519850985098509850985098509850985050919395975091939597565b6000819050919050565b61109b81611088565b82525050565b60006020820190506110b66000830184611092565b92915050565b600080fd5b6110ca81611088565b81146110d557600080fd5b50565b6000813590506110e7816110c1565b92915050565b600381106110fa57600080fd5b50565b60008135905061110c816110ed565b92915050565b60008060408385031215611129576111286110bc565b5b6000611137858286016110d8565b9250506020611148858286016110fd565b9150509250929050565b600073ffffffffffffffffffffffffffffffffffffffff82169050919050565b600061117d82611152565b9050919050565b61118d81611172565b811461119857600080fd5b50565b6000813590506111aa81611184565b92915050565b600080600080608085870312156111ca576111c96110bc565b5b60006111d88782880161119b565b94505060206111e98782880161119b565b93505060406111fa8782880161119b565b925050606061120b878288016110d8565b91505092959194509250565b6004811061122457600080fd5b50565b60008135905061123681611217565b92915050565b60008060408385031215611253576112526110bc565b5b60006112618582860161119b565b925050602061127285828601611227565b9150509250929050565b600060208284031215611292576112916110bc565b5b60006112a0848285016110d8565b91505092915050565b6112b281611172565b82525050565b7f4e487b7100000000000000000000000000000000000000000000000000000000600052602160045260246000fd5b600481106112f8576112f76112b8565b5b50565b6000819050611309826112e7565b919050565b6000611319826112fb565b9050919050565b6113298161130e565b82525050565b600381106113405761133f6112b8565b5b50565b60008190506113518261132f565b919050565b600061136182611343565b9050919050565b61137181611356565b82525050565b60006101008201905061138d600083018b611092565b61139a602083018a6112a9565b6113a760408301896112a9565b6113b460608301886112a9565b6113c16080830187611092565b6113ce60a0830186611320565b6113db60c0830185611368565b6113e860e0830184611092565b9998505050505050505050565b60006020828403121561140b5761140a6110bc565b5b60006114198482850161119b565b91505092915050565b60048110611433576114326112b8565b5b50565b600081905061144482611422565b919050565b600061145482611436565b9050919050565b61146481611449565b82525050565b60008115159050919050565b61147f8161146a565b82525050565b600060608201905061149a60008301866112a9565b6114a7602083018561145b565b6114b46040830184611476565b949350505050565b600481106114c957600080fd5b50565b6000813590506114db816114bc565b92915050565b600080604083850312156114f8576114f76110bc565b5b6000611506858286016110d8565b9250506020611517858286016114cc565b9150509250929050565b600082825260208201905092915050565b7f4f7264657220646f6573206e6f74206578697374000000000000000000000000600082015250565b6000611568601483611521565b915061157382611532565b602082019050919050565b600060208201905081810360008301526115978161155b565b9050919050565b60006060820190506115b36000830186611368565b6115c06020830185611368565b6115cd6040830184611092565b949350505050565b7f4f6e6c7920706861726d6163792063616e20706572666f726d2074686973206160008201527f6374696f6e000000000000000000000000000000000000000000000000000000602082015250565b6000611631602583611521565b915061163c826115d5565b604082019050919050565b6000602082019050818103600083015261166081611624565b9050919050565b7f5573657220646f6573206e6f7420657869737400000000000000000000000000600082015250565b600061169d601383611521565b91506116a882611667565b602082019050919050565b600060208201905081810360008301526116cc81611690565b9050919050565b7f4e487b7100000000000000000000000000000000000000000000000000000000600052601160045260246000fd5b600061170d82611088565b91507fffffffffffffffffffffffffffffffffffffffffffffffffffffffffffffffff820361173f5761173e6116d3565b5b600182019050919050565b600060608201905061175f60008301866112a9565b61176c6020830185611092565b6117796040830184611092565b949350505050565b7f4f6e6c792061646d696e2063616e20706572666f726d2074686973206163746960008201527f6f6e000000000000000000000000000000000000000000000000000000000000602082015250565b60006117dd602283611521565b91506117e882611781565b604082019050919050565b6000602082019050818103600083015261180c816117d0565b9050919050565b7f5573657220616c72656164792065786973747300000000000000000000000000600082015250565b6000611849601383611521565b915061185482611813565b602082019050919050565b600060208201905081810360008301526118788161183c565b9050919050565b6000602082019050611894600083018461145b565b92915050565b7f4f6e6c7920737570706c6965722063616e20706572666f726d2074686973206160008201527f6374696f6e000000000000000000000000000000000000000000000000000000602082015250565b60006118f6602583611521565b91506119018261189a565b604082019050919050565b60006020820190508181036000830152611925816118e9565b9050919050565b7f4f6e6c792061737369676e656420737570706c6965722063616e20757064617460008201527f6520737461747573000000000000000000000000000000000000000000000000602082015250565b6000611988602883611521565b91506119938261192c565b604082019050919050565b600060208201905081810360008301526119b78161197b565b9050919050565b60006060820190506119d36000830186611320565b6119e06020830185611320565b6119ed6040830184611092565b94935050505056fea2646970667358221220db28bdf8daf1b39d339c4bc8c3f17fb1389007c418fc411663a201c82566ad3964736f6c634300081c0033",
    "linkReferences": {},
    "deployedLinkReferences": {}
}